:100000000C9446000C9458000C9458000C94580022
:100010000C9458000C9458000C9458000C94580000
:100020000C9458000C9458000C9458000C945800F0
:100030000C9458000C9458000C9458000C945800E0
:100040000C94C3020C9458000C94E7020C945800D2
:100050000C9458000C9458000C9458000C945800C0
:100060000C9458000C9458000C9458000C945800B0
:100070000C9458000C9458000C9458000C945800A0
:100080000C9458000C9458000C94580011241FBE76
:10009000CFEFD0E1DEBFCDBF12E0A0E0B1E001C004
:1000A0001D92A530B107E1F70E945A000C94D703C6
:1000B0000C9400002F923F924F925F926F927F922A
:1000C0008F929F92AF92BF92CF92DF92EF92FF9268
:1000D0000F931F93DF93CF93CDB7DEB7C25CD140B0
:1000E0000FB6F894DEBF0FBECDBF8FE784BB85BBD4
:1000F000F89460E072EC81E090E00E9476017894E0
:100100008AE08B838DEF8C8383E08D8384E3888703
:1001100081E0898780E68A872DB73EB7205E304030
:100120000FB6F8943EBF0FBE2DBFADB7BEB7119648
:10013000FE01319680EE01900D928150E1F70E9410
:1001400087018DB79EB780529F4F0FB6F8949EBF20
:100150000FBE8DBF00E712E00F2EFCE09F2EF02DAA
:100160000F2EFEEF8F2EF02D0F2EF5E07F2EF02DAF
:100170000F2EFDEFBF2EF02D0F2EF2E36F2EF02D80
:100180006E010894C11CD11C0F2EF0EEAF2EF02D85
:100190000F2EF1EE2F2E3324F02D2C0E3D1EC1011B
:1001A000E22CF92E0F2EF0E94F2EF1E05F2EF02D0C
:1001B00008C091E00039190719F400E712E001C006
:1001C00082019B828C827D820887912F9F7789850F
:1001D0008078892B89878A85807C8C618A87BB8619
:1001E0006C86ADB7BEB7A05EB0400FB6F894BEBF88
:1001F0000FBEADBF1196F6018A2D01900D92815070
:10020000E1F70E9487018FEF93EDA0E381509040CA
:10021000A040E1F700C0000099E09B83BC82A4E00D
:10022000AD83BAE3B887E2E0E9872DB73EB7205245
:100230003F4F0FB6F8943EBF0FBE2DBF8DB79EB790
:10024000805E90400FB6F8949EBF0FBE8DBFEDB795
:10025000FEB73196D6018A2D0D9001928150E1F7BB
:100260000E9487019FE090930101ADB7BEB7A052F5
:10027000BF4F0FB6F894BEBF0FBEADBF8E2D9F2DE2
:100280000E940502882329F4809101018823B1F797
:100290002BC0813049F5F101F285CE53DE4FF88352
:1002A000C25CD140CF53DE4F1882C15CD140D10136
:1002B00019968C91199790E0CF53DE4F28813981A0
:1002C000C15CD140282B392B822F932F9F71F801CD
:1002D000E81BF90BCF0104968930910518F4FFE76C
:1002E000F5BB67CF15BA65CF15BA63CFEF92FF9212
:1002F0000F931F937B018C010E94DA02C801B701A2
:100300000E9411031F910F91FF90EF900895DF93CA
:10031000CF93CDB7DEB78FEF8D838E836F81E88566
:10032000E6278985E827EA87262F30E027503040E6
:100330001216130694F480E090E070E0AE01445F82
:100340005F4F840F951FDC018C91E8277F5F872F1B
:1003500090E082179307ACF3EA878A85982F9E7FF7
:100360009A8780958E7F8B87CE0105960E944703E2
:10037000CF91DF9108950F931F93CF93DF93109147
:100380000402009102011123D9F1A12FB0E01197CD
:10039000A230B105FCF041E050E081E0C02FD0E098
:1003A00063E071E09E01280F311DFB01E20FF11D9A
:1003B00090819F3F41F42F5F3F4FFB01E20FF11D02
:1003C00090819F3F51F08F5F482F50E04A175B07A5
:1003D0004CF303C041E050E081E0A417B50771F48D
:1003E000212F30E0200F311D21503040E3E0F1E0BB
:1003F000E20FF11D90819F3F09F08F5F0E949203F1
:10040000DF91CF911F910F9108951F9320910402C6
:10041000293008F4A9C020910201E3E0F1E0E20FE5
:10042000F11D20812F3F51F4209102012F5FE3E065
:10043000F1E0E20FF11D20812F3F21F00E94BB016E
:1004400082E095C0409102014E5F23E031E0F90166
:10045000E40FF11D6081409102014D5FF901E40F4D
:10046000F11DA081409102014C5F240F311DF90163
:100470007081603E20F00E94BB0183E078C0209133
:100480000402261708F472C0272F2154293020F0C7
:100490000E94BB0184E06BC0AE3F20F00E94BB0114
:1004A00085E065C0733459F0743428F4713439F040
:1004B000723401F50BC0743449F07A34D8F46930E1
:1004C00009F457C00E94BB0183E051C02091020192
:1004D000285FE3E0F1E0E20FF11D2081462F50E0BC
:1004E00030E0255F3F4F4217530721F00E94BB01C8
:1004F00083E03DC0A6271A2F1727462F50E047500C
:10050000504014161506DCF10EC020910201270F91
:10051000FD01E20FF11D208112277F5F272F30E0C0
:100520002417350794F3209102012B5FE3E0F1E0FB
:10053000E20FF11D3081212F2E7F321769F42091B7
:1005400002012A5FE3E0F1E0E20FF11D3081212F8B
:1005500020952E7F321721F00E94BB0186E007C054
:100560000E94640381E003C080E001C080E01F912D
:10057000089529E0A2271A2F172742E050E070E0E3
:10058000A3E0B1E0C2CF1F920F920FB60F921124D9
:100590008F9388E382BF80910101882329F08091A5
:1005A00001018150809301018F910F900FBE0F9038
:1005B0001F90189513BE10BE88E382BF87B7816075
:1005C00087BF86B7816086BF85E083BF08951F928D
:1005D0000F920FB60F920BB60F9211248F939F9329
:1005E000EF93FF938CB19091040290910302E3E0AA
:1005F000F1E0E90FF11D8083809104028F5F809309
:100600000402809103028F5F80930302FF91EF91B8
:100610009F918F910F900BBE0F900FBE0F901F9068
:100620001895EFE3FCE93197F1F700C0000028E9E5
:100630002AB922E02BB99B01AC01220F331F441FC2
:10064000551F220F331F441F551F220F331F441FF6
:10065000551F60E074E284EF90E00E94B5032150E2
:10066000304040405040832F8F708093900029B9D4
:100670001092030280910302809302018091020193
:100680008093040208955D9BFECF8CB90895EF928C
:10069000FF920F931F93CF93DF93162F662369F07A
:1006A000082FE82EE7017E01F92EE70189910E94CB
:1006B00043037E01E01AE116C8F3DF91CF911F9149
:1006C0000F91FF90EF900895CF93DF932091040254
:1006D000261710F4609104026623A1F0E82FF92F89
:1006E00020E030E0C3E0D1E090910201A901490F80
:1006F000511DDE01A40FB11D9C9191932F5F3F4FBF
:10070000261790F3F89480910402861B80930402CC
:1007100080910201860F809302017894862FDF91E9
:10072000CF91089590910402981710F480910402DB
:10073000F89490910402981B909304029091020106
:10074000980F9093020178940895F8941AB8109233
:100750000302809103028093020180910201809341
:10076000040288E98AB978940895A1E21A2EAA1B96
:10077000BB1BFD010DC0AA1FBB1FEE1FFF1FA21751
:10078000B307E407F50720F0A21BB30BE40BF50B4E
:10079000661F771F881F991F1A9469F760957095D7
:1007A000809590959B01AC01BD01CF010895F8940F
:0207B000FFCF79
:00000001FF
