:100000000C9446000C9458000C9458000C94580022
:100010000C9458000C9458000C9458000C94580000
:100020000C9458000C9458000C9458000C945800F0
:100030000C9458000C9458000C9458000C945800E0
:100040000C946A020C9458000C948E020C94580084
:100050000C9458000C9458000C9458000C945800C0
:100060000C9458000C9458000C9458000C945800B0
:100070000C9458000C9458000C9458000C945800A0
:100080000C9458000C9458000C94580011241FBE76
:10009000CFEFD0E1DEBFCDBF12E0A0E0B1E001C004
:1000A0001D92A530B107E1F70E945A000C94750328
:1000B0000C9400002F923F924F925F926F927F922A
:1000C0008F929F92AF92BF92CF92DF92EF92FF9268
:1000D0000F931F93DF93CF93CDB7DEB7C25CD140B0
:1000E0000FB6F894DEBF0FBECDBF8FE784BB85BBD4
:1000F000F89460E072EC81E090E00E945D017894F9
:100100008AE08B838DEF8C8383E08D8384E3888703
:1001100081E0898780E68A872DB73EB7205E304030
:100120000FB6F8943EBF0FBE2DBFADB7BEB7119648
:10013000FE01319680EE01900D928150E1F70E9410
:100140006E018DB79EB780529F4F0FB6F8949EBF39
:100150000FBE8DBF00E712E0ACE08A2EFEEF9F2EAF
:10016000E5E0AE2E7DEFB72E62E3762E6E010894A9
:10017000C11CD11C59E0652E44E0542E3AE3432EB5
:1001800022E0322E9FE0292E81EEE82EF12CEC0E9B
:10019000FD1E09C091E00039190719F400E712E0CB
:1001A00002C000E911E08B829C82AD820887912F0A
:1001B0009F7789858078892B89878A85807C8C6167
:1001C0008A87BB867C86ADB7BEB7A05EB0400FB64F
:1001D000F894BEBF0FBEADBF1196F60180EE019040
:1001E0000D928150E1F70E946E018FEF93EDA0E335
:1001F00081509040A040E1F700C000006B82BC82BB
:100200005D8248863986ADB7BEB7A052BF4F0FB6E4
:10021000F894BEBF0FBEADBFEDB7FEB7E05EF040D5
:100220000FB6F894FEBF0FBEEDBFADB7BEB71196C7
:10023000F60180EE01900D928150E1F70E946E016F
:10024000209201012DB73EB720523F4F0FB6F894D0
:100250003EBF0FBE2DBFC7010E94D201882329F4E3
:10026000809101018823B9F726C0813021F5D7019B
:100270001A96BC91CE53DE4FB883C25CD140CF53A7
:10028000DE4F1882C15CD140F701818590E0CF53E9
:10029000DE4F28813981C15CD140822B932B9C0198
:1002A0003F71C801821B930B04968930910518F4A5
:1002B0003FE735BB6FCF15BA6DCFEF92FF920F932B
:1002C0001F937B018C010E948102C801B7010E942B
:1002D000B8021F910F91FF90EF900895DF93CF9395
:1002E000CDB7DEB78FEF8D838E836F8178857627CC
:1002F00089857827E0E0862F90E00797AE01445F7C
:100300005F4F06C0240F351FD9012C917227EF5F74
:100310002E2F30E028173907ACF3872F8E7F8A877E
:1003200070957E7F7B87CE0105960E94E902CF9172
:10033000DF910895CF93DF93E09104029091020141
:10034000EE2369F181E0F0E09F0121503040492F18
:1003500050E011C0A40FB51FED01D070CD5FDE4F8E
:1003600068816F3F39F41196B070AD5FBE4F6C91EC
:100370006F3F99F08F5FA82FB0E0A217B30754F337
:10038000A217B30751F4E90FF11D3197F070ED5F3B
:10039000FE4F90819F3F09F08F5F0E943003DF91F5
:1003A000CF91089520910402293008F48FC0E09184
:1003B0000201F0E0ED5FFE4F20812F3F49F4E09114
:1003C0000201EF5FF0E0ED5FFE4F20812F3F21F053
:1003D0000E949A0182E00895E0910201EE5FF0E050
:1003E000ED5FFE4F6081E0910201ED5FF0E0ED5FB7
:1003F000FE4FA081E0910201EC5FF0E0ED5FFE4F67
:100400007081603E48F520910402261708F460C010
:10041000272F2154293020F00E949A0184E008956A
:10042000AE3F20F00E949A0185E00895723429F0D1
:10043000743419F0693081F413C0E0910201E85F6F
:10044000F0E0ED5FFE4F2081462F50E030E0255F69
:100450003F4F4217530721F00E949A0183E008950D
:100460004A2F4627472750E0262F30E027503040BC
:100470000AC070910201E70FF11DF070ED5FFE4FB1
:10048000708147275F5FE52FF0E0E217F3078CF3F9
:10049000E0910201EB5FF0E0ED5FFE4F2081342F31
:1004A0003E7F321759F4E0910201EA5FF0E0ED5F20
:1004B000FE4F208140954E7F421721F00E949A0105
:1004C00086E008950E94080381E0089580E0089581
:1004D00080E008951F920F920FB60F9211248F9310
:1004E00088E382BF80910101882329F08091010176
:1004F0008150809301018F910F900FBE0F901F903C
:10050000189513BE10BE88E382BF87B7816087BF8E
:1005100086B7816086BF85E083BF08951F920F92E2
:100520000FB60F920BB60F9211248F939F93EF93F8
:10053000FF938CB19091040290910302E3E0F1E00B
:10054000E90FF11D8083809104028F5F8093040284
:10055000809103028F5F80930302FF91EF919F913F
:100560008F910F900BBE0F900FBE0F901F9018959C
:100570009B01AC018FE39CE90197F1F700C00000FB
:1005800088E98AB982E08BB983E0220F331F441FC8
:10059000551F8A95D1F760E074E284EF90E00E94E5
:1005A00053032150304040405040832F8F70809340
:1005B000900029B9109203028091030280930201F6
:1005C000809102018093040208955D9BFECF8CB957
:1005D0000895EF92FF921F93DF93CF930F92CDB7C1
:1005E000DEB7182FE12FF92F7F0107C0F7018191A6
:1005F0007F0169830E94E50269818E2D811B861728
:10060000A8F30F90CF91DF911F91FF90EF90089585
:1006100020910402261710F460910402282F392F2C
:10062000D90120E030E00CC080910201F901E80F0F
:10063000F11DF070ED5FFE4F80818D932F5F3F4F76
:10064000261790F3F89480910402861B809304028D
:1006500080910201860F809302017894862F08957D
:1006600090910402981710F480910402F8949091EC
:100670000402981B9093040290910201980F9093AA
:10068000020178940895F8941AB8109203028091A8
:10069000030280930201809102018093040288E9A1
:1006A0008AB978940895A1E21A2EAA1BBB1BFD01FA
:1006B0000DC0AA1FBB1FEE1FFF1FA217B307E40741
:1006C000F50720F0A21BB30BE40BF50B661F771F99
:1006D000881F991F1A9469F7609570958095909579
:0E06E0009B01AC01BD01CF010895F894FFCF3E
:00000001FF
